:100000000C94C8020C940F030C940F030C940F0370
:100010000C940F030C940F030C940F030C940F0318
:100020000C940F030C940F030C94EB290C940F0306
:100030000C947E2D0C940F030C940F030C940F035F
:100040000C940F030C940F030C940F030C940F03E8
:100050000C940F030C945A2D0C940F030C940F0363
:100060000C940F030C940F030C940F030C940F03C8
:100070000C940F030C940F030C940F030C940F03B8
:100080000C940F030C940F030C940F030C940F03A8
:100090000C940F030C940F030C940F030C940F0398
:1000A0000C940F030C940F030C940F034D617220FA
:1000B000203120323032300076312E303A205374E5
:1000C000656E6F6B6E696768740000000000000069
:1000D0000000000000000000000000000000000020
:1000E0000000000000000000000000000000000010
:1000F0000000000000000000000000000000000000
:1001000000000000000000000000000000000000EF
:1001100000000000000000000000000000000000DF
:1001200000000000000000000000000000000000CF
:1001300000000000000000000000000000000000BF
:1001400000000000000000000000000000000000AF
:10015000000000000000000000000000000000009F
:10016000000000000000000000000001010101018A
:10017000010001010101000000000000000000007A
:100180000000000001000100010101010101010165
:10019000010101010101010101010101010101014F
:1001A0000101010101000000010100000000000048
:1001B000000000000000000000000000000000003F
:1001C000000000000001010101000000000000002B
:1001D00000002A2B280000000000000000000000A2
:1001E000000000000029000000002C1E3420212205
:1001F00024342627252E362D3738271E1F2021226E
:10020000232425263333362E37381F0405060708E6
:10021000090A0B0C0D0E0F101112131415161718D6
:10022000191A1B1C1D2F3130232D35040506070814
:10023000090A0B0C0D0E0F101112131415161718B6
:10024000191A1B1C1D2F3130354C0000165A175A35
:10025000185A00001A5A1B5A235A00001C5A1D5AD9
:10026000195A00001E5A1F5A00000000205A215A35
:1002700000000000225A295A00000000000000007F
:1002800000000000115A125A015A00000D5A0E5A6D
:10029000105A00000B5A0C5A0F5A0000095A0A5AF9
:1002A00000000000075A085A00000000005A155AC2
:1002B0000000000000000000000000001C000B0017
:1002C0002502000018000D004C0000000C000E007C
:1002D0001050000012000F00000000001300330057
:1002E00000000000280034020000000000000000B0
:1002F0000000000017000A00284200001500090055
:100300002C00000008000700E20000001A001600A0
:10031000000000001400040000000000E100E00004
:100320000000000000000000000000002300110099
:1003300025020000240010004C00000025003602B9
:10034000105000002600370200000000270038028D
:10035000000000002D00E50000000000000000008B
:100360000000000022000500280000002100190004
:100370002C00000020000600E20000001F001B000F
:10038000000000001E001D0000000000E100E00071
:100390000000000000000000000000D0D0D0D0D04D
:1003A000D0010102040810204142444848000000E6
:1003B000484850608182848890A0C1C2C4D0D0D007
:1003C000D0D0D0C8000000000000000000000000F5
:1003D0000000000000000000000005010906A10166
:1003E0008501050719E029E7150025019508750124
:1003F00081029501750881010508190129059505F6
:10040000750191029501750391010507190029FFF6
:10041000150026FF00950675088100C00501090238
:10042000A10185020901A10005091901290515008D
:10043000250195057501810295017503810105016D
:10044000093009311581257F950275088106093823
:100450001581257F950175088106050C0A3802155E
:1004600081257F950175088106C0C005010980A11D
:100470000185031601002603001A81002A830075F6
:100480001095018100C0050C0901A1018504160128
:1004900000269C021A01002A9C0275109501810019
:1004A000C005010906A1018505050719E029E71521
:1004B0000025019508750181020508190129059596
:1004C0000575019102950175039101050719002930
:1004D000EF1500250195F075018102C009025F004A
:1004E000030100A0FA090400000103010100092131
:1004F000110100012202010705810320000A080BF7
:1005000001020202010009040100010202010005CA
:1005100024001001042402020524060102070582BA
:10052000030800FF09040200020A00000007050496
:10053000021000050705830210000512011001EFEB
:10054000020108EDFE37130100010203010403302C
:100550000000000E03470065006F0072006700692D
:100560000000002603670020004800650061007657
:10057000007900200049006E00640075007300746B
:1005800000720069006500730000000403090400A4
:1005900011241FBECFEFDAE0DEBFCDBF04B603FEED
:1005A00027C08091A8039091A903A091AA03B091BC
:1005B000AB038730904BA740B04BD1F41092A80307
:1005C0001092A9031092AA031092AB0314BE84B731
:1005D000877F84BF0FB6F894A895809160008861EA
:1005E00080936000109260000FBEE0E0F8E3099590
:1005F00011E0A0E0B1E0E6E0FDE502C005900D925B
:10060000A033B107D9F723E0A0E3B1E001C01D9208
:10061000A83AB207E1F70E94C12A0C94212E0C944B
:100620000000E8EDF0E080818E7F80831092E20090
:100630001092DA001092E100A0EEB0E08C9181609F
:100640008C9380818F77808319BCA7EDB0E08C916B
:100650008E7F8C9380818F7E8083109279030895A2
:100660002091E4003091E50095E6A9012091EC008D
:10067000822F817020FF06C08091E80080FF06C0B5
:1006800080E008952091E80022FD1AC08091A70320
:10069000882389F0853089F08091EB0085FD0FC0BB
:1006A0002091E4003091E50042175307F9F2915090
:1006B000E1F684E0089582E0089583E0089581E002
:1006C00008958091A703843061F580912101909174
:1006D0002201A0912301B0912401892B8A2B8B2B1D
:1006E00001F180910E018F708093E9009091F300E9
:1006F0008091F200892B11F480E008959091E80038
:100700008091E8008E778093E80095FDF5CF0E94F8
:100710003003811107C09091E8009E779093E80024
:10072000089582E0089580919F0387FF13C0809110
:10073000E80082FF06C08091E8008B778093E80094
:1007400004C08091A7038111F2CF08958091A7037F
:100750008823D9F38091E80080FFF8CF8091E800EA
:100760008E77ECCF982F9093E900242F762F50E0CE
:10077000891731F07091EC002091ED005091F0005C
:1007800021FD07C09F5F973071F78093E90081E0FA
:1007900008953091EB003E7F3093EB003091ED00F7
:1007A0003D7F3093ED003091EB0031603093EB00F2
:1007B0007093EC002093ED005093F0002091EE0038
:1007C00027FDE0CF80E00895CF92DF92EF92FF9275
:1007D0000F931F93CF93DF93C8EDD0E088818F7E76
:1007E0008883E7EDF0E080818160808384E082BFD0
:1007F00081E08093790388818E7F888302EE10E008
:10080000F80110821092DA0081EEC82ED12CF60188
:10081000108288818F778883888180688883888127
:100820008F7D888319BC1092A70310929E031092AB
:100830009D0310929C0390EEE92EF12CF70180812C
:100840008B7F808388818160888342E060E080E0E4
:100850000E94B203F60180818E7F8083F80180813F
:1008600081608083808188608083F70180818E7FB2
:100870008083888180618883DF91CF911F910F9160
:10088000FF90EF90DF90CF900895FC018091A50339
:100890009091A60386179707A0F06115710529F4BA
:1008A0009091E8009E779093E80090E061157105C3
:1008B00051F4911108C08091E80082FF34C080E0BB
:1008C0000895BC01F2CF8091A7038823C1F1853040
:1008D000C1F18091E80083FD30C08091E80082FD85
:1008E000EACF8091E80080FFE1CF8091F300209172
:1008F000F200382F6115710519F02830310558F0D4
:1009000091E02830310509F090E02091E8002E7741
:100910002093E800CBCF81918093F1006150710961
:100920002F5F3F4FE7CF8091A703882341F08530A9
:1009300041F08091E80083FFBECF81E0089582E01E
:10094000089583E0089580917803811107C0809114
:10095000A703843011F482E0089581E00895809126
:100960007B03089590916103803F41F4809162037D
:1009700087FD10926203992371F00895813F29F455
:10098000809162031816ACF3F6CF823F81F497FF93
:10099000F2CF109261038091620390916303892BDF
:1009A00090916403892B49F7109265030895833F62
:1009B00019F4191674F3DFCF893F39F4809163037A
:1009C0001816CCF610926303D6CF8A3F29F4809193
:1009D000630387FFD0CFF6CF8B3F39F48091640358
:1009E00087FFC9CF10926403C6CF8C3F29F4809152
:1009F00064031816BCF3BFCF843F31F480916003C9
:100A00008E7F80936003B7CF853F21F48091600390
:100A10008D7FF7CF863F21F4809160038B7FF1CFEC
:100A2000873F21F480916003877FEBCF883F21F4DB
:100A3000809160038F7EE5CF8D3F31F48091040378
:100A40008E7F8093040397CF8E3F21F4809104031F
:100A50008D7FF7CF8F3F09F08ECF809104038B7F7E
:100A6000F0CF8091040380FD16C081FD16C082FD89
:100A700016C0809165038823A1F0883280F428E0B5
:100A8000829FC001112468E270E00E94B12D862F80
:100A9000672B39F0089582E0089584E0089588E096
:100AA000089581E008958091040380FD16C081FDC2
:100AB00016C082FD18C080916503882391F08C33A5
:100AC00090F423E2829FC00111246CE370E00E9445
:100AD000B12D862F672B49F0089588E0089581E1B4
:100AE000089585E0089583E2089581E00895803FA8
:100AF00031F40E9453058195809362030895813FEC
:100B000019F40E945305F8CF823F31F40E94530537
:100B10008195809361030895833F19F40E945305E2
:100B2000F8CF893F29F40E9431058093630308952B
:100B30008A3F21F40E9431058195F7CF8B3F31F434
:100B40000E94310581958093640308958C3F19F4C8
:100B50000E943105F8CF843F31F4809160038160B9
:100B6000809360030895853F21F480916003826043
:100B7000F7CF863F21F4809160038460F1CF873FF7
:100B800021F4809160038860EBCF883F21F480914D
:100B900060038061E5CF8D3F31F480910403816073
:100BA0008093040308958E3F21F4809104038260B2
:100BB000F7CF8F3FB9F7809104038460F1CFCF92D4
:100BC000DF92EF92FF920F931F932FB7F89440910B
:100BD00000035091010360910203709103032FBF42
:100BE0006A017B01EE24FF248C0130E020E0C01676
:100BF000D106E206F30650F0481B590BCA011F91BB
:100C00000F91FF90EF90DF90CF90089541505109E0
:100C1000F3CF2FB7F8948091000390910103A09136
:100C20000203B09103032FBF08950F931F93CF9337
:100C3000DF93C82F1092BC0084EA8093BC000E940E
:100C400009068C018091BC0087FF27C08091B90004
:100C5000887F883029F08091B900887F803199F5AC
:100C6000C093BB0084E88093BC000E940906EC019D
:100C70008091BC0087FF1FC02091B900287F90E0C1
:100C800080E0283199F081E090E0203411F490E088
:100C900080E091958195910909C00E940906801B09
:100CA000910B883E934070F28EEF9FEFDF91CF91D2
:100CB0001F910F9108950E9409068C1B9D0B883E81
:100CC0009340B0F2F1CF8FEF9FEFF0CFCF93DF9350
:100CD0008093BB0084E88093BC000E940906EC016D
:100CE0008091BC0087FF0FC02091B900287F81E070
:100CF00090E0283211F490E080E09195819591097F
:100D0000DF91CF9108950E9409068C1B9D0B883EB0
:100D1000934030F38EEF9FEFF3CFE0914E03F091CD
:100D20004F03309749F082E080935F030480F581A0
:100D3000E02D8FE593E009950E94090690936703E3
:100D40008093660308958091FB029091FA02892BAB
:100D50009091F902892B80933101E0914E03F0913B
:100D60004F03309799F080910C01882369F08091AE
:100D70004C0387FF09C085E0809330010280F38136
:100D8000E02D80E391E0099481E0F6CF0895909101
:100D90000C019923D1F090914C0397FF16C0E82FD6
:100DA000E695E695E695EE31E0F4F0E0E05DFE4F85
:100DB000282F277081E090E001C0880F2A95EAF77C
:100DC00080959281892382830895E3E3F1E09191F4
:100DD000891303C0DF0111971C9291E0E933F907F1
:100DE000B1F7089590910C019923C1F090914C03B3
:100DF00097FF14C0E82FE695E695E695EE31F8F4F6
:100E0000F0E0E05DFE4F877021E030E001C0220F8E
:100E10008A95EAF78281822B82830895A3E3B1E069
:100E2000EFEF90E02D91821751F0EF3F19F421116F
:100E300001C0E92F9F5F9630A9F7EF3F09F40895AD
:100E40000E2E000CFF0BE05DFE4F83830895990F7B
:100E5000990F890F982F977086958695869525E02E
:100E6000829FF0011124EE52FD4F50E040E080E0FF
:100E7000219130E0092E02C0369527950A94E2F7B9
:100E800021703327042E01C0220F0A94EAF7822B27
:100E90004F5F5F4F4530510559F70895990F990FEE
:100EA000890F982F977041E001C0440F9A95EAF797
:100EB00086958695869595E0899FF0011124EE52DE
:100EC000FD4F30E020E070E05191DF011197CB0140
:100ED000022E02C0969587950A94E2F7817081955B
:100EE0008527842385278C932F5F3F4F253031053D
:100EF00059F708958091D1029091A002981301C0F2
:100F000008958F5F8770FACF882341F08095909184
:100F1000FB0289238093FB020C94A3060895882387
:100F200039F09091FB02982B9093FB020C94A3064E
:100F300008952091DF013091E0012817390771F001
:100F40009093E0018093DF01E0914E03F0914F0315
:100F5000309721F00084F185E02D099408952091C7
:100F6000DD013091DE012817390771F09093DE0121
:100F70008093DD01E0914E03F0914F03309721F013
:100F80000680F781E02D099408951092FA021092DC
:100F9000F9020E94A30686E0EFE5F3E0DF011D926F
:100FA0008A95E9F710926503109204030E948D065A
:100FB00090E080E00E94AF0790E080E00C949907F9
:100FC0006093F5027093F6028093F7029093F80213
:100FD0000C94C5070F931F9341E050E060E070E070
:100FE00004C0440F551F661F771F8A95D2F7CB01A7
:100FF000BA0160957095809590950091F5021091D9
:10100000F6022091F7023091F802602371238223C7
:1010100093231F910F910C94E0070F931F9341E0CE
:1010200050E060E070E004C0440F551F661F771F5A
:101030008A95D2F78091F5029091F602A091F7027D
:10104000B091F8028A019B01082B192B2A2B3B2B0C
:10105000C901B8011F910F910C94E0076093FC0245
:101060007093FD028093FE029093FF020C94C507DB
:10107000E0914E03F0914F03309721F00190F08101
:10108000E02D099480E00895882309F459C082383E
:1010900071F40E94380881FF53C089E30E94F20670
:1010A0000E94A30689E30E94C7060C94A306833816
:1010B00059F40E94380880FF43C083E50E94F2067D
:1010C0000E94A30683E5EFCF843859F40E943808C4
:1010D00082FF36C087E40E94F2060E94A30687E4DE
:1010E000E2CF9CEF980F913AF0F290E2980F98308F
:1010F00088F4877021E030E0A90102C0440F551F39
:101100008A95E2F7CA0180959091FB02892380932A
:10111000FB02CBCF9BE5980F933020F490E080E06A
:101120000C94AF0798E5980F973120F490E080E099
:101130000C949907803F20F00E94B2040C948D0615
:101140000895CF93DF9300D000D00F92CDB7DEB7D4
:101150006B837C838D838C819D81892B21F0CA01D7
:1011600089238F3F51F480E081700F900F900F9092
:101170000F900F90DF91CF9108958B81F5CF9091D3
:101180004C0392FF06C0282F2871283069F4877F0E
:10119000846093FF06C0282F2871283161F4877E70
:1011A000846194FD877E0895282F2471243089F767
:1011B0008B7F8860EECF282F2471243191F78B7EAE
:1011C0008861EFCFCF93DF932EE0829FC00111247F
:1011D000FC01E70FF11DEE0FFF1FEE0FFF1FE60FE3
:1011E000F11DEE0FFF1FE65BFD4FC591D491CE01BF
:1011F000C238D105B9F108F03EC0C133D10509F4B8
:1012000082C048F5C932D10509F476C0CA32D10589
:1012100009F480C0C11530E5D30708F0AFC0C1158F
:1012200040E4D40708F0A9C1C83ED10508F08AC03F
:10123000C03ED105E8F4C83AD10508F072C0C53AFD
:10124000D10508F0F6C0C130D10591F0209729F101
:10125000249770F422C0C533D10509F446C0C933C0
:10126000D105C1F620914C03237011F080EE90E07F
:10127000DF91CF910895C33ED10539F188F4C03E86
:10128000D105E1F0C23ED10529F620914C0322FFA1
:10129000EFCF83EE90E024FFEBCF90E080E0E8CF4B
:1012A000C63ED105C9F0C73ED10509F0B3CF2091A4
:1012B0004C0323FF0EC086EE90E0DACF20914C0362
:1012C00020FFD6CF89E390E0D3CF20914C0322FDBD
:1012D0009DC124FFCDCFE1CF20914C0323FFC8CF88
:1012E00087EE90E024FDD9CFC3CF20914C0325FF9A
:1012F000BFCF89E290E0BCCF20914C0325FFB8CF4F
:1013000085E390E0B5CF20914C0326FFB1CF8AE270
:1013100090E0AECF20914C0326FFAACF81E390E06E
:10132000A7CFCF3BD10508F493C0C03CD10508F44A
:10133000B4CFCE01880F991F86539F4FFC01859132
:10134000949196CFC11550E2D50760F4C11521E004
:10135000D20708F08DCFCE019065C03FD10508F0CF
:1013600087CF9BCFC11530E3D30708F0FEC0FE0145
:10137000FF70EE0FFF1FE65BFD4FE1CFC11545E5A6
:10138000D40748F5C11554E5D50708F027C1C115A4
:1013900082E5D80750F4C11521E5D20708F4F1C061
:1013A0009C2F8827816F906A63CF2C2F26952695D6
:1013B000AE0143705527C115D34508F000C181E047
:1013C00090E002C0880F991F4A95E2F750E2259FEE
:1013D00090011124F0C0C11549E5D407A0F4C1154E
:1013E00058E5D50708F0FFC0C11586E5D80708F015
:1013F00054CF8C2F0E94BF0890E0982F8827882711
:101400009F71906235CFC1152AE5D20708F4F0C06C
:10141000CE0190568115904208F03FCF8D2F8F71ED
:101420000E94BF0890E0982F882788279F718C2BF7
:10143000E8CF81E890E4C53AD10509F419CF82E8F4
:1014400090E4C63AD10509F413CF83E890E410CFB5
:1014500082EE94E4C83AD10509F40ACF89EE94E407
:10146000C93AD10509F404CF8AEE94E4CA3AD10509
:1014700009F4FECE85EB94E4CB3AD10509F4F8CE1D
:1014800086EB94E4CC3AD10509F4F2CE83EB94E4F4
:10149000CB3BD10509F4ECCE84EB94E4CC3BD105F5
:1014A00009F4E6CE87EB94E4CD3AD10509F4E0CE19
:1014B0008CEC94E4C03BD10509F4DACE8DEC94E4D5
:1014C000CE3AD10509F4D4CE83E895E4CF3AD105DC
:1014D00009F4CECE8AE895E4C13BD10509F4C8CE23
:1014E00082E995E4C23BD10509F4C2CE84E995E4D2
:1014F000C33BD10509F4BCCE81E296E4C43BD105DF
:1015000009F4B6CE83E296E4C53BD10509F4B0CE2A
:1015100084E296E4C63BD10509F4AACE85E296E4BE
:10152000C73BD10509F4A4CE86E296E4C83BD105B9
:1015300009F49ECE87E296E4C93BD10509F498CE22
:101540008FE694E4CD3BD10509F492CE80E794E494
:10155000CE3BD10509F48CCE80E094E4CA3BD105A2
:1015600009F086CE8AE296E483CECE019927D3FF96
:1015700002C0986C7DCE906C7BCECE019F70906A3D
:1015800077CE9E01E4E036952795EA95E1F7237042
:101590008C2F86958695837040E2849FC00111242C
:1015A000AC01522B9A01C37081E090E002C0880F19
:1015B000991FCA95E2F7822B932B9C6859CE81E044
:1015C00090E002C0880F991F4A95E2F740E2249FFD
:1015D00090011124822B932B9A684ACE9C2F882746
:1015E000846F906A45CE9C2F8827806F906A40CE8A
:1015F0008C2F8F700E94BF0834E0D695C7953A951E
:10160000E1F7CF708F70806E9C2FB9CF82EE90E0A3
:101610002FCEBF92CF92DF92EF92FF920F931F9344
:10162000CF93DF938C01C090F502D090F602E0904A
:10163000F702F090F8028091FC029091FD02A091D7
:10164000FE02B091FF02C82AD92AEA2AFB2ACFE17A
:10165000D0E0BC2ED701C6010C2E04C0B695A795CC
:10166000979587950A94D2F780FD0EC0219788F749
:10167000B12C8B2DDF91CF911F910F91FF90EF90A7
:10168000DF90CF90BF900895B8018C2F0E94E208A0
:10169000019761F3EECFCF93DF93EC010E94090B2A
:1016A000BE01DF91CF910C94E2080E944B0B292FD1
:1016B0002F7092959F7092509E3078F4E92FF0E051
:1016C000ED5DF14D0C94C52D803F19F020F4803E66
:1016D00020F481E00895843FE1F380E00895803EA6
:1016E000C0F3813FD1F7F5CF822F869586958695F9
:1016F00008956093D5017093D6018093D70190939C
:10170000D80180916202909163029093D4018093FA
:10171000D301E1EEF1E0A3E5B1E041915191619196
:1017200071914D935D936D937D9382E0E136F8075F
:10173000A1F708950F931F93CF93DF93EC018B01D3
:10174000FB018281882309F44EC00E940906909310
:1017500052018093510181E080936402F8019281EB
:10176000FE01FA55EA32F10508F0D9C1EF5CF14DFE
:101770000C94C52D40917D0250917E0260917F02B4
:1017800070918002992331F1446040937D0250931F
:101790007E0260937F02709380028091620290913A
:1017A0006302FC01EE0FFF1FEE0FFF1FEF51FE4F14
:1017B00040917D0250917E0260917F027091800283
:1017C0004083518362837383019690936302809375
:1017D000620209C04B7F40937D0250937E0260936A
:1017E0007F027093800281E0DF91CF911F910F9172
:1017F000089540917D0250917E0260917F02709128
:101800008002992311F04860C0CF477FE4CF409118
:101810007D0250917E0260917F0270918002992337
:1018200011F04061B2CF4F7ED6CF40917D025091F2
:101830007E0260917F0270918002992311F04062D4
:10184000A4CF4F7DC8CF40917D0250917E02609120
:101850007F0270918002992311F0416096CF4E7FF4
:10186000BACF40917D0250917E0260917F027091CB
:101870008002992311F0426088CF4D7FACCF409118
:101880007D0250917E0260917F02709180029923C7
:1018900011F040647ACF4F7B9ECF40917D025091F2
:1018A0007E0260917F0270918002992311F040685E
:1018B0006CCF4F7790CF40917D0250917E02609126
:1018C0007F0270918002992311F051605ECF5E7F9C
:1018D00082CF40917D0250917E0260917F02709193
:1018E0008002992311F0526050CF5D7F74CF4091F8
:1018F0007D0250917E0260917F0270918002992357
:1019000011F0546042CF5B7F66CF40917D025091D1
:101910007E0260917F0270918002992311F05860DD
:1019200034CF577F58CF40917D0250917E02609115
:101930007F0270918002992311F0506126CF5F7E63
:101940004ACF40917D0250917E0260917F0270915A
:101950008002992311F0506218CF5F7D3CCF4091F7
:101960007D0250917E0260917F02709180029923E6
:1019700011F050640ACF5F7B2ECF40917D025091D1
:101980007E0260917F0270918002992311F050686D
:10199000FCCE5F7720CF40917D0250917E02609116
:1019A0007F0270918002992311F06160EECE6E7F0C
:1019B00012CF40917D0250917E0260917F02709122
:1019C0008002992311F06260E0CE6D7F04CF4091D8
:1019D0007D0250917E0260917F0270918002992376
:1019E00011F06460D2CE6B7FF6CE40917D025091B3
:1019F0007E0260917F0270918002992311F06860ED
:101A0000C4CE677FE8CE40917D0250917E02609106
:101A10007F0270918002992311F06061B6CE6F7ED3
:101A2000DACE40917D0250917E0260917F027091EA
:101A30008002992311F06062A8CE6F7DCCCE4091D8
:101A40007D0250917E0260917F0270918002992305
:101A500011F060649ACE6F7BBECE40917D025091B2
:101A60007E0260917F0270918002992311F060687C
:101A70008CCE6F77B0CE40917D0250917E02609106
:101A80007F0270918002992311F071607ECE7E7F7B
:101A9000A2CE40917D0250917E0260917F027091B2
:101AA0008002992311F0726070CE7D7F94CE4091B8
:101AB0007D0250917E0260917F0270918002992395
:101AC00011F0746062CE7B7F86CE40917D02509192
:101AD0007E0260917F0270918002992311F07860FC
:101AE00054CE777F78CE40917D0250917E026091F6
:101AF0007F0270918002992311F0706146CE7F7E43
:101B00006ACE40917D0250917E0260917F02709179
:101B10008002992311F0706238CE7F7D5CCE9923CC
:101B200009F461CE3ACECF93C82F873050F580911B
:101B3000000190910101892B11F580E40E941506A6
:101B40009093010180930001892BB1F482E10E94FE
:101B500066069093010180930001892B69F481E06E
:101B600090E001C0880FCA95EAF780950E9466064A
:101B7000909301018093000184E98093BC00CF9190
:101B800008958A30B1F038F4883069F0893071F006
:101B9000209A2898F4CF8C3091F070F08D30C1F7F6
:101BA0003E9A4698ECCF219A2998E9CF229A2A9812
:101BB000E6CF239A2B98E3CF529A5A98E0CF539AC4
:101BC0005B98DDCF84B1807F84B985B1807F85B992
:101BD0003E9846988AB1837F8AB98BB1837F8BB94F
:101BE000089580B38D7880BB81B3826781BB0895EF
:101BF000EF92FF920F931F93CF93DF93C82F8730FD
:101C000008F084C08091000190910101892B09F0B6
:101C100088C080E40E941506909301018093000122
:101C2000892B09F43FC090E084E98093BC002C2FFD
:101C300030E0F901E35CFC4FA081A9279083F90112
:101C4000EE0FFF1FEE0FFF1FEB5FFC4F70E060E039
:101C500040E0C1E0D0E0B0E055E0162F808188235D
:101C600009F461C0815080837D0102C0F594E7943E
:101C70001A95E2F7E0FC50836F5F7F4F3196643036
:101C8000710559F72F5A3C4F842F8095F901208117
:101C900082239423892BDF91CF911F910F91FF9085
:101CA000EF90089583E10E9466069093010180936E
:101CB0000001892B09F0B7CF81E40E9415069093AB
:101CC000010180930001892B09F0ADCF84E8809356
:101CD000BC000E9409068C018091BC0087FF08C0EF
:101CE0009091BB00909510920101109200019CCF41
:101CF0000E940906801B910B883E934068F38EEF8B
:101D00009FEF90930101809300018DCF8FB19FB120
:101D1000869581709695969596959E70982B909540
:101D200086CF90E084CF7E01062E01C0EE0C0A948F
:101D3000EAF74E2999CFCF93C091E9002091EC00AA
:101D4000922F917020FD90E820911D0120FF12C07C
:101D5000CF70C92B90910E019F709093E9009091E4
:101D6000EB0090FF04C09091EE0097FD05C0CF708E
:101D7000C093E900CF9108959FEF2091E800915022
:101D800025FD06C025ED2A95F1F700009111F5CF4C
:101D90008093F1008DE091E00E9461038091E80062
:101DA00080FFE5CF8091E8008E778093E800DFCF59
:101DB000882309F408C18238B9F40E94380881FDEB
:101DC00002C189E30E94F2060E94A3062FEF81EE72
:101DD00094E0215080409040E1F700C0000089E38A
:101DE0000E94C7060C94A3068338A1F40E94380809
:101DF00080FDE9C083E50E94F2060E94A3062FEF52
:101E000081EE94E0215080409040E1F700C0000056
:101E100083E5E6CF8438A1F40E94380882FDD3C060
:101E200087E40E94F2060E94A3062FEF81EE94E061
:101E3000215080409040E1F700C0000087E4D0CFFF
:101E40009CEF980F913A18F40E94F206CBCF90E2E3
:101E5000980F983068F4877021E030E001C0220FBD
:101E60008A95EAF78091FB02822B8093FB02BACF1E
:101E70009BE5980F933070F4853A31F0863A39F04B
:101E800083E890E00C94AF0781E890E0FBCF82E814
:101E900090E0F8CF98E5980F973108F08EC0883A17
:101EA00009F446C0893A09F446C08A3A09F446C0A2
:101EB0008B3A09F446C08C3A09F446C08B3B09F4CE
:101EC00046C08C3B09F446C08D3A09F446C0803BBD
:101ED00009F446C08E3A09F446C08F3A09F446C068
:101EE000813B09F446C0823B09F446C0833B09F4B8
:101EF00046C0843B09F446C0853B09F446C0863B96
:101F000009F446C0873B09F446C0883B09F446C043
:101F1000893B09F446C08D3B09F446C08E3B09F469
:101F200046C08A3B09F446C090E080E00C949907D3
:101F300082EE90E0FBCF89EE90E0F8CF8AEE90E061
:101F4000F5CF85EB90E0F2CF86EB90E0EFCF83EB1F
:101F500090E0ECCF84EB90E0E9CF87EB90E0E6CF28
:101F60008CEC90E0E3CF8DEC90E0E0CF83E891E063
:101F7000DDCF8AE891E0DACF82E991E0D7CF84E93A
:101F800091E0D4CF81E292E0D1CF83E292E0CECF54
:101F900084E292E0CBCF85E292E0C8CF86E292E085
:101FA000C5CF87E292E0C2CF8FE690E0BFCF80E757
:101FB00090E0BCCF8AE292E0B9CF803F20F00E944F
:101FC00077050C948D06089590917B02923069F408
:101FD00090917A02943158F4E92FF0E0EB59FD4FDB
:101FE00080839F5F90937A0208950C94D80E089591
:101FF000CF92DF92EF92FF92C0907D02D0907E024E
:10200000E0907F02F0908002C11491E0D906E104D3
:10201000F10461F4811103C084E10E94E40FC7015F
:10202000B601FF90EF90DF90CF900895C11492E039
:10203000D906E104F10421F48111F1CF84E0EDCF60
:10204000C11494E0D906E104F10421F48111E7CF31
:102050008AE1E3CFC11490E1D906E104F10421F44F
:102060008111DDCF88E0D9CFC11490E4D906E10415
:10207000F10421F48111D3CF85E1CFCFC11498E0D1
:10208000D906E104F10421F48111C9CF86E1C5CF5D
:10209000C11490E2D906E104F10421F48111BFCF0B
:1020A00087E0BBCFC11490E8D906E104F10421F424
:1020B0008111B5CF89E0B1CF94E0C916D104E10414
:1020C000F10421F48111ABCF87E1A7CF98E0C916C5
:1020D000D104E104F10421F48111A1CF8AE09DCF64
:1020E000C114D10491E0E906F10421F4811197CFE4
:1020F00086E093CFC114D10492E0E906F10421F403
:1021000081118DCF89E189CFC114D10494E0E90612
:10211000F10421F4811183CF81E17FCFC114D10477
:1021200098E0E906F10421F4811179CF80E175CFBF
:1021300090E1C916D104E104F10421F481116FCFBB
:102140008CE16BCF90E2C916D104E104F10421F4D3
:10215000811165CF8BE061CFC114D10490E1E90614
:10216000F10421F481115BCF88E157CFC114D10470
:1021700090E4E906F10421F4811151CF8CE04DCFB8
:10218000C114D104E10491E0F90621F4811147CF93
:1021900082E143CFC114D104E10494E0F90621F4B3
:1021A00081113DCF83E139CFC114D104E10490E125
:1021B000F90621F4811133CF8FE22FCFC114D1045E
:1021C00090E2E906F10421F4811129CF8DE025CFB9
:1021D000C114D10490E8E906F10421F481111FCF64
:1021E0008EE01BCFC114D104E10492E0F90621F482
:1021F000811115CF8FE011CFC114D104E10498E013
:10220000F90621F481110BCF83E307CFC114D10468
:10221000E10490E2F90621F4811101CF86E3FDCEBD
:1022200090E4C916D104E104F10421F48111F7CE40
:102230008EE1F3CE90E8C916D104E104F104B1F3C4
:10224000C12CD12C7601EBCE0F931F93CF93DF934C
:10225000C62FD42F022FFC0182818823A1F0609326
:1022600096020E9409069093DC018093DB01C770FF
:1022700081E001C0880FCA95EAF7DF91CF911F91E5
:102280000F910C948F0710919602161338C080910D
:10229000DB019091DC010E94DF05883C910578F517
:1022A000C0E2CD0F1D17B9F080E2810F883040F4F5
:1022B000177081E001C0880F1A95EAF70E94840721
:1022C000C83048F481E09D2F977001C0880F9A951F
:1022D000EAF70E948F07802F0E94D80E802F0E945D
:1022E0004408C83098F4D77081E001C0880FDA95AF
:1022F000EAF7DF91CF911F910F910C948407C7707B
:1023000081E001C0880FCA95EAF7F3CFDF91CF9142
:102310001F910F910895FF920F931F93CF93DF9317
:102320008C01F8012491222309F450C0E801219680
:10233000213049F4FE011491812F0E94D80E812F83
:102340000E94440806C0223041F4FE0184910E949C
:10235000D80E8E010F5F1F4FE4CF233019F4FE011A
:102360008491EECF30E0F901E653FE4FD491F901AC
:10237000E65BFE4FF490F901E653FF4FC491FF2056
:1023800019F081EE0E94D80ECC2319F086EE0E943F
:10239000D80E8D2F0E94D80ED93349F4FFEF23ECCD
:1023A00089E0F15020408040E1F700C000008D2F0F
:1023B0000E944408CC2319F086EE0E944408FF20B6
:1023C00019F081EE0E944408E801C3CFDF91CF915C
:1023D0001F910F91FF900895CF92DF92EF92FF929D
:1023E000C0907D02D0907E02E0907F02F09080024B
:1023F00090E4C916D104E1049CE3F90689F4811143
:1024000008C088EB90E00E948B118CEA90E00E945B
:102410008B11C701B601FF90EF90DF90CF90089528
:1024200090ECC916D1049FE0E906F10431F4811162
:10243000F0CF8EEA0E94E40FECCFC1149CE3D906E2
:10244000E104F10449F48111E4CF80917B028130F1
:1024500001F78093DA01DDCF9CE2C91690E2D9063C
:10246000E104F10431F48111D4CF8AE20E94E40F37
:10247000D0CFC1149AE0D90692E0E906F10471F4D4
:102480008111C7CF85EF0E9477050E948D0681E0FC
:102490008093820285EF80938102BBCFC11490EAC2
:1024A000D90692E0E906F10471F48111B2CF84EF0C
:1024B0000E9477050E948D0681E08093820284EF5E
:1024C00080938102A6CFC114D1049FE0E906F104F4
:1024D00031F481119ECF89E30E94E40F9ACFC11499
:1024E000D10499E0E906F10431F4811192CF89E237
:1024F0000E94E40F8ECFC114D10496E0E906F104E6
:1025000031F4811186CF80EE0E94E40F82CF90ECEF
:10251000C916D10499E0E906F10449F4811179CF93
:1025200080EE0E94E40F81EE0E94E40F72CF90E4EF
:10253000C916D10495E0E906F10461F4811169CF6F
:1025400080EE0E94E40F81EE0E94E40F82EE0E9472
:10255000E40F5FCFC114D104E1049CE3F90631F428
:10256000811157CF83EE0E94E40F53CFC114D104E1
:10257000E10494E1F90631F481114BCF80EE0E9421
:10258000E40F47CFC114D104E10498E2F90631F415
:1025900081113FCF82EE0E94E40F3BCF90E4C91639
:1025A000D10491E0E906F10431F4811132CF80EEDB
:1025B0000E94E40F2ECFC114D10493E0E906F10488
:1025C00031F4811126CF82EE0E94E40F22CFC11494
:1025D000D10492E0E906F10431F481111ACF81EEC1
:1025E0000E94E40F16CFC1149AE5D90690E3E906DC
:1025F000F10431F481110DCF8EE30E94E40F09CF75
:10260000C1149AE5D90690ECE906F10431F4811180
:1026100000CF8FE30E94E40FFCCEC1149AE5D906E7
:10262000E10493E0F90631F48111F3CE80E40E94D5
:10263000E40FEFCEC1149AE5D906E1049CE0F90657
:1026400031F48111E6CE81E40E94E40FE2CEC114A0
:102650009AE5D90690E1E906F10431F48111D9CE69
:102660008AE30E94E40FD5CEC1149AE5D90690E41E
:10267000E906F10431F48111CCCE8BE30E94E40F22
:10268000C8CEC1149AE5D906E10491E0F90631F407
:102690008111BFCE8CE30E94E40FBBCEC1149AE53A
:1026A000D906E10494E0F90631F48111B2CE8DE34C
:1026B0000E94E40FAECEC1149AE5D90690E2E90675
:1026C000F10431F48111A5CE82E40E94E40FA1CE81
:1026D000C1149AE5D906E10492E0F90631F48111BA
:1026E00098CE83E40E94E40F94CEC1149AE5D906F3
:1026F00090E8E906F10431F481118BCE84E40E9464
:10270000E40F87CEC1149AE5D906E10498E0F906F2
:1027100031F481117ECE85E40E94E40F7ACE9CE0F4
:10272000C916D10490E1E906F10431F4811171CEAA
:1027300080E50E94E40F6DCE9CE0C916D10490E4C0
:10274000E906F10431F4811164CE81E50E94E40FC1
:1027500060CE9CE0C916D104E10491E0F90631F4A1
:10276000811157CE82E50E94E40F53CE9CE0C9163A
:10277000D104E10494E0F90631F481114ACE8FE4EA
:102780000E94E40F46CE9CE1C916D104E104F10495
:1027900031F481113ECE8BE40E94E40F3ACE9CE2EC
:1027A000C916D104E104F10431F4811132CE8EE472
:1027B0000E94E40F2ECEC1149AEAD90690E1E906F0
:1027C000F10431F4811125CE8CEA0E94E40F21CE70
:1027D000C1149AEAD90690E4E906F10431F48111B2
:1027E00018CE8EEA0E94E40F14CEC1149AEAD906DC
:1027F000E10491E0F90631F481110BCE8EEA0E94DA
:10280000E40F07CEC1149AEAD906E10494E0F90670
:1028100031F48111FECD8BEA0E94E40FFACDC11490
:102820009AEAD906E10490E1F90631F48111F1CD7B
:1028300089EA0E94E40FEDCDC1149AEAD906E104B9
:1028400090E2F90631F48111E4CD8AEA0E94E40FA6
:10285000E0CDC1149AEAD906E10498E0F90631F412
:102860008111D7CD88EA0E94E40FD3CD90E4C91638
:1028700091E0D906E104F10431F48111CACD8EE171
:102880000E94E40FC6CD90E4C91694E0D906E10495
:10289000F10431F48111BDCD8FE10E94E40FB9CD77
:1028A00090E4C91690E1D906E104F10431F48111F4
:1028B000B0CD80E20E94E40FACCD90E4C916D906F9
:1028C000E104F10431F48111A4CD81E20E94E40F0E
:1028D000A0CD94E4C916D104E104F10431F48111CE
:1028E00098CD82E20E94E40F94CD90E5C916D10400
:1028F000E104F10431F481118CCD83E20E94E40FF4
:1029000088CD90E4C916D10490E1E906F10431F4D0
:1029100081117FCD84E20E94E40F7BCD90E4C91643
:10292000D104E906F10431F4811173CD85E20E94EE
:10293000E40F6FCD90E4C916D104E10491E0F906EB
:1029400031F4811166CD86E20E94E40F62CD90E4FD
:10295000C916D104E10494E0F90631F4811159CD8E
:1029600087E20E94E40F55CD90E8C91691E0D906A0
:10297000E104F10431F481114CCD8EE10E94E40FA9
:1029800048CD90E8C91694E0D906E104F10431F489
:1029900081113FCD8FE10E94E40F3BCD90E8C91635
:1029A00090E1D906E104F10431F4811132CD80E2E5
:1029B0000E94E40F2ECD90E8C91690E4D906E104F8
:1029C000F10431F4811125CD81E20E94E40F21CD83
:1029D00094E8C916D104E104F10431F4811119CD50
:1029E00082E20E94E40F15CD90E9C916D104E104FA
:1029F000F10431F481110DCD83E20E94E40F09CD81
:102A000090E8C916D10490E1E906F10431F481118E
:102A100000CD84E20E94E40FFCCC90E8C916D104FA
:102A200090E4E906F10431F48111F3CC85E20E94CF
:102A3000E40FEFCC90E8C916D104E10491E0F90667
:102A400031F48111E6CC86E20E94E40FE2CC90E8FA
:102A5000C916D104E10494E0F90631F48111D9CC0E
:102A600087E20E94E40FD5CC90E8C916D10491E02A
:102A7000E906F10431F48111CCCC82E20E94E40F2A
:102A8000C8CC90E8C916D10498E0E906F10431F405
:102A90008111BFCC8BE20E94E40FBBCCC114D104E6
:102AA0009CE0E906F10431F48111B3CC8AE20E9482
:102AB000E40FAFCCC114D104E10490E3F90631F482
:102AC0008111A7CC88E20E94E40FA3CCC114D104E9
:102AD00094E0E906F10431F481119BCC88E20E9474
:102AE000E40F97CCC114D104E10490E1F90631F46C
:102AF00081118FCC8AE20E94E40F8BCC90E4C9163E
:102B0000D104E104F10431F4811183CC8AE20E9402
:102B1000E40F7FCC90E8C916D104E104F10431F44C
:102B2000811177CC8AE20E94E40F73CCC114D104E6
:102B300091E0E906F10431F481116BCC8CE20E9442
:102B4000E40F67CCC114D10498E0E906F10431F434
:102B500081115FCC8CE20E94E40F5BCCC114D104E4
:102B6000E10490E2F90631F4811153CC89E20E942C
:102B7000E40F4FCC92E0C916D1049CE0E906F104C1
:102B800031F4811146CC88E20E94E40F42CC92E0FD
:102B9000C916D10493E0E906F10431F4811139CC6E
:102BA0008CE20E94E40F35CC92E0C91690E3D9067E
:102BB000E104F10449F481112CCC81EE0E94E40F70
:102BC00086E20E94E40F25CC92E0C91690ECD9066B
:102BD000E104F10449F481111CCC81EE0E94E40F60
:102BE00087E20E94E40F15CC9EE0C916D104E104EF
:102BF000F10431F481110DCC85E30E94E40F09CC7E
:102C000092E0C916D104E10490E3F90631F4811190
:102C100000CC89E20E94E40FFCCB92E0C91693E05D
:102C2000D906E104F10449F48111F3CB81EE0E944D
:102C3000E40F80E20E94E40FECCB92E0C9169CE026
:102C4000D906E104F10449F48111E3CB81EE0E943D
:102C5000E40F81E20E94E40FDCCB92E0C91691E020
:102C6000D906E104F10449F48111D3CB81EE0E942D
:102C7000E40F8EE10E94E40FCCCB92E0C916D90696
:102C8000E104F10449F48111C4CB81EE0E94E40F08
:102C900082E20E94E40FBDCB92E0C91694E0D9060F
:102CA000E104F10449F48111B4CB81EE0E94E40FF8
:102CB0008FE10E94E40FADCB92E0C91698E0D906EF
:102CC000E104F10449F48111A4CB81EE0E94E40FE8
:102CD00083E20E94E40F9DCB92E0C91690E1D906F1
:102CE000E104F10449F4811194CB81EE0E94E40FD8
:102CF0008FE20E94E40F8DCB92E0C91690E2D906D4
:102D0000E104F10431F4811184CB8FE20E94E40FDD
:102D100080CB92E0C91690E4D906E104F10449F4AD
:102D2000811177CB81EE0E94E40F80E30E94E40FD3
:102D300070CB92E0C91690E8D906E104F10431F4B1
:102D4000811167CB80E30E94E40F63CB96E0C91644
:102D5000D104E104F10449F481115BCB81EE0E94BE
:102D6000E40F81E30E94E40F54CB9AE0C916D1042A
:102D7000E104F10449F481114CCB81EE0E94E40F8F
:102D800085E30E94E40F45CB92E1C916D104E1042A
:102D9000F10431F481113DCB84E30E94E40F39CB7F
:102DA00092E2C916D104E104F10449F4811131CB56
:102DB00081EE0E94E40F84E30E94E40F2ACB92E0AC
:102DC000C916D10490E1E906F10431F4811121CB57
:102DD00087E50E94E40F1DCB92E0C916D10490E272
:102DE000E906F10449F4811114CB81EE0E94E40F4D
:102DF00084E20E94E40F0DCB92E0C916D10490E466
:102E0000E906F10431F4811104CB8DE20E94E40F54
:102E100000CB92E0C916D10490E8E906F10431F440
:102E20008111F7CA8EE20E94E40FF3CA92E0C9163C
:102E3000D104E10491E0F90631F48111EACA88E392
:102E40000E94E40FE6CA92E0C916D104E104F90633
:102E500031F48111DECA86E30E94E40FDACA92E0FF
:102E6000C916D104E10494E0F90631F48111D1CA04
:102E700085E50E94E40FCDCA92E0C916D104E104B1
:102E800098E0F90631F48111C4CA87E30E94E40F87
:102E9000C0CA92E0C916D104E10490E1F90631F408
:102EA0008111B7CA8BE20E94E40FB3CA92E0C9163F
:102EB000D10491E0E906F10431F48111AACA81EE4E
:102EC0000E94E40FA6CA92E0C916D104E906F104F3
:102ED00031F481119ECA88E30E94E40F9ACA92E0FD
:102EE000C916D10494E0E906F10431F4811191CAC4
:102EF00083E30E94E40F8DCA92E0C916D10498E0E2
:102F0000E906F10431F4811184CA81E30E94E40FDF
:102F100080CA92E4C916D104E104F10431F48111AC
:102F200078CA81E30E94E40F74CAC11493E0D90601
:102F3000E104F10431F481116CCA84E00E94E40FD1
:102F400068CAC1149CE0D906E104F10431F481118E
:102F500060CA86E10E94E40F5CCAC11490E3D906FE
:102F6000E104F10431F4811154CA87E00E94E40FB6
:102F700050CAC11490ECD906E104F10431F4811176
:102F800048CA89E00E94E40F44CA9CE0C916D104F3
:102F9000E104F10431F481113CCA8AE00E94E40F9B
:102FA00038CA90E3C916D104E104F10431F4811167
:102FB00030CA8BE00E94E40F2CCAC114D10490E304
:102FC000E906F10431F4811124CA8DE00E94E40F76
:102FD00020CAC114D104E1049CE0F90631F4811146
:102FE00018CA83E30E94E40F14CAC114D104E10497
:102FF00093E0F90631F481110CCA8FE00E94E40FCE
:1030000008CAC114D10490ECE906F10431F481112D
:1030100000CA8EE00E94E40FFCC9C11491E0D906F9
:10302000E104F10431F48111F4C984E10E94E40F58
:10303000F0C9C11492E0D906E104F10431F4811120
:10304000E8C98DE10E94E40FE4C9C11494E0D906F7
:10305000E104F10431F48111DCC98AE10E94E40F3A
:10306000D8C9C11498E0D906E104F10431F4811102
:10307000D0C98BE10E94E40FCCC9C11490E1D906FC
:10308000E104F10431F48111C4C988E00E94E40F25
:10309000C0C9C11490E2D906E104F10431F48111F0
:1030A000B8C986E00E94E40FB4C9C11490E4D906FF
:1030B000E104F10431F48111ACC985E10E94E40F0F
:1030C000A8C9C11490E8D906E104F10431F48111D2
:1030D000A0C989E10E94E40F9CC994E0C916D104FB
:1030E000E104F10431F4811194C987E10E94E40FF5
:1030F00090C998E0C916D104E104F10431F48111BA
:1031000088C985E00E94E40F84C990E1C916D10402
:10311000E104F10431F481117CC98CE10E94E40FD7
:1031200078C990E2C916D104E104F10431F48111A7
:1031300070C981E10E94E40F6CC9C114D10490E10F
:10314000E906F10431F4811164C988E10E94E40FB9
:1031500060C9C114D10490E2E906F10431F481118F
:1031600058C980E10E94E40F54C9C114D10490E40D
:10317000E906F10431F481114CC98CE00E94E40F9E
:1031800048C9C114D10490E8E906F10431F4811171
:1031900040C986E30E94E40F3CC9C114D104E10494
:1031A00091E0F90631F4811134C982E10E94E40F03
:1031B00030C9C114D104E10492E0F90631F481115F
:1031C00028C987E30E94E40F24C9C114D104E10493
:1031D00094E0F90631F481111CC983E10E94E40FE7
:1031E00018C9C114D104E10498E0F90631F4811141
:1031F00010C988E30E94E40F0CC9C12CD12C7601C0
:1032000008C92F923F924F925F926F927F928F9256
:103210009F92AF92BF92CF92DF92EF92FF920F9365
:103220001F93CF93DF93CDB7DEB7CB57D1090FB63E
:10323000F894DEBF0FBECDBF182FC0907D02D09096
:103240007E02E0907F02F0908002C0FE0CC0D701A9
:10325000C60121E0822780937D0290937E02A09395
:103260007F02B0938002112361F181E00E94F80F88
:1032700080907D0290907E02A0907F02B0908002AC
:10328000681579058A059B05E1F480E0C558DF4F94
:103290000FB6F894DEBF0FBECDBFDF91CF911F9167
:1032A0000F91FF90EF90DF90CF90BF90AF909F90E5
:1032B0008F907F906F905F904F903F902F900C94E5
:1032C000F80F81E00E94EC1180907D0290907E02C8
:1032D000A0907F02B0908002681579058A059B0551
:1032E00009F446C0AE014F5F5F4FA3965FAF4EAF8C
:1032F000A397A5965FAF4EAFA597812C912C540153
:10330000EA961FAE1EAEEA978C149D04AE04BF046D
:1033100009F475C121EE31E0A7963FAF2EAFA79714
:10332000312C212CA8961FAEA897EB961FAEEB97D9
:10333000EC961FAEEC9700E060E070E0CB0124015A
:1033400035014094509460947094E0964CAE5DAE1C
:103350006EAE7FAEE097A50194012270332744271B
:103360005527E4962CAF3DAF4EAF5FAFE497C5C095
:1033700080E00E94EC118091DA01882361F1809154
:10338000D5019091D601A091D701B091D801809339
:103390007D0290937E02A0937F02B0938002809181
:1033A000D3019091D4019093630280936202E3E58C
:1033B000F1E0A1EEB1E041915191619171914D9394
:1033C0005D936D937D9351E0E33DF507A1F7109276
:1033D000DA0110E032CF60917D0270917E0280911F
:1033E0007F0290918002C558DF4F0FB6F894DEBF80
:1033F0000FBECDBFDF91CF911F910F91FF90EF9046
:10340000DF90CF90BF90AF909F908F907F906F9004
:103410005F904F903F902F900C94790BA796AEAD94
:10342000BFADA7972D913D914D915D91A796BFAFEF
:10343000AEAFA797E0964CAC5DAC6EAC7FACE097BE
:103440004222532264227522E8964CAE5DAE6EAEE7
:103450007FAEE89740927D0250927E0260927F029A
:1034600070928002411451046104710409F442C055
:103470002114310489F0611571058105910561F010
:103480004626572668267926A30192012230310567
:103490004105510509F443C0E4964CAC5DAC6EACFB
:1034A0007FACE49745284628472879F0E8962CAD6C
:1034B0003DAD4EAD5FADE897226020937D02309325
:1034C0007E0240937F025093800281E0112309F431
:1034D0005CC00E94F80F611571058105910551F0DE
:1034E000A8966FAFA897EB967FAFEB97EC968FAF50
:1034F000EC97092F2FEF221A320A209162023091A5
:103500006302221533050CF089CFA8966FADA897FA
:10351000EB967FADEB97EC968FADEC97902F862ACC
:10352000972AA82AB92AA596AEADBFADA5976D93E7
:103530007D938D939D93A596BFAFAEAFA597EA9669
:10354000EEADFFADEA973196EA96FFAFEEAFEA97A0
:10355000789709F0D9CEC558DF4F0FB6F894DEBF83
:103560000FBECDBFDF91CF911F910F91FF90EF90D4
:10357000DF90CF90BF90AF909F908F907F906F9093
:103580005F904F903F902F9008950E94EC11A3CF31
:10359000A396EEADFFADA39781919191A191B191C9
:1035A000A396FFAFEEAFA39780937D0290937E0228
:1035B000A0937F02B093800280E01123E9F00E9483
:1035C000F80FFFEFAF1ABF0AEA964EAC5FACEA976E
:1035D0004A145B04E9F68091DA01811104C0C70145
:1035E000B6010E94790BC0927D02D0927E02E092D9
:1035F0007F02F0928002AFCF0E94EC11E2CFB12C9B
:10360000A12CE2CF80E290E0909301018093000131
:103610008091D901811111C01092B9008CE0809382
:10362000B80081E08093D9012FEF83ED90E3215022
:1036300080409040E1F700C0000080E40E94150641
:103640009093010180930001892B09F040C080E034
:103650000E9466069093010180930001892BB9F5C1
:1036600080E80E9466069093010180930001892BF7
:1036700071F58FEF0E94660690930101809300011F
:10368000892B29F584E98093BC0080E40E9415060B
:103690009093010180930001892BC9F48CE00E9472
:1036A00066069093010180930001892B81F480E8E4
:1036B0000E9466069093010180930001892B39F4E2
:1036C0008FEF0E946606909301018093000184E9C8
:1036D0008093BC0080910001089590E080E00E94FA
:1036E000E72D21E08D3E9E4F09F020E0822F0895C6
:1036F0006DEE7EEF90E080E00E940B2E60E082E0B5
:1037000090E00E94ED2D60E083E090E00E94ED2DBE
:103710001092FC021092FD021092FE021092FF0223
:1037200060E084E090E00E94ED2D60E085E090E0B4
:103730000E94ED2D60E086E090E00E94ED2D6FEF9D
:1037400087E090E00E94ED2D40E050E0BA0188E073
:1037500090E00E94FF2D60E08DE090E00E94ED2D52
:1037600040E050E0BA0188E190E00E94FF2D60E067
:1037700087E190E00E94ED2D40E050E0BA018FE03B
:1037800090E00E94FF2D40E050E0BA0183E190E01C
:103790000C94FF2D1092FB0280910C01882369F09C
:1037A00080914C0387FF09C0E2E3F1E08EE1DF0185
:1037B0001D928A95E9F70C94C507E3E3F1E086E0F2
:1037C000F6CF0F931F93CF93DF93CDB7DEB7AA97B2
:1037D0000FB6F894DEBF0FBECDBF8091A70388233C
:1037E00009F469C31091E9001F709091EC00892FD2
:1037F000817090FD80E8182B1092E9008091E8001C
:1038000083FF56C38FE993E02091F100FC012193DF
:10381000CF01F3E0873A9F07B9F78091A003833087
:1038200009F4B8C008F04CC0813009F47EC0823081
:1038300009F4F8C08091E80083FF9BC020910D013E
:103840008091A3039091A4032817190609F091C051
:103850008091A003813209F405C108F0F4C08032E0
:1038600009F087C080919F03813209F082C0809166
:10387000E800877F8093E8008091E80082FF2FC1F5
:103880003091F1002091F1009091F1008091F100D0
:1038900030932101209322019093230180932401EE
:1038A0008091F100809325018091F10080932601A1
:1038B0008091F100809327018091E8008B770AC105
:1038C0008A3009F49EC08B3009F481C0893009F038
:1038D000B1CF80919F03813209F0ACCF8091A303D7
:1038E0009091A403892B09F0A5CF8091E800877FF0
:1038F0008093E8008091E80082FF37C09091F30048
:103900008091F200029729F48091F1008B7F813041
:1039100021F48091F10080937B038091E8008B7704
:103920008093E8000E94930385CF80919F03813AA2
:1039300009F080CF8091E800877F8093E800809134
:10394000A3039091A403892B61F460E28CE793E0D8
:1039500070E00E9445048091E8008B778093E80036
:1039600069CF60E090E080E0F3CF8091A703811100
:10397000C1CF8091E80083FF8DC280919F03909119
:10398000A0039A3008F086C2E92FF0E0E55AF14D25
:103990000C94C52D80919F03813A09F04BCF809103
:1039A000A3039091A403892B09F044CF8091E800F0
:1039B000877F8093E8008091E80080FFFCCF8091B2
:1039C0000C018093F1008091E8008E77A9CF80915F
:1039D0009F03813209F02ECF8091A3039091A4031D
:1039E000892B09F027CF8091E800877F8093E8003A
:1039F0000E9493038091A10380930C010E94CA1B33
:103A000019CF80919F03813209F014CF8091E80093
:103A1000877F8093E8000E9493038091A2038093A4
:103A20007A0308CF80919F03813A09F003CF8091F8
:103A3000E800877F8093E8008091E80080FFFCCF5A
:103A400080917A03BECF823209F44EC0833209F0EE
:103A500090CF80919F03813209F08BCF8091E80055
:103A6000877F38C080919F03813A09F082CF80918F
:103A7000E800877F8093E8008091E80080FFFCCF1A
:103A80008091210190912201A0912301B091240104
:103A90008093F100492F5A2F6B2F77274093F10025
:103AA000AD01662777274093F1008B2F9927AA272E
:103AB000BB278093F100809125018093F1008091D4
:103AC00026018093F100809127018093F10080917D
:103AD000E8008E778093E8000E9493034ACF80919C
:103AE000A7038111C9CE45CF80919F03813209F090
:103AF00040CF8091E800877F8093E8000E94930385
:103B00008091A1039091A20390931E0180931D01C7
:103B100030CF803899F0823809F0BCC18091A3037E
:103B20008F70873008F0B6C18093E9008091EB0078
:103B300085FB882780F91092E90006C080919C03DC
:103B400090919D03911182609091E800977F9093EE
:103B5000E8008093F1001092F1008091E8008E77E8
:103B600095C1882309F483C1823009F093C1809103
:103B7000A103811186C18091A3038F702FEF280FBD
:103B8000263008F087C18093E9002091EB0020FFE8
:103B900078C1933031F48091EB0080628093EB0028
:103BA00070C19091EB0090619093EB0021E030E0C8
:103BB00001C0220F8A95EAF72093EA001092EA00EA
:103BC0008091EB008860EACF811164C10091A1036C
:103BD0000F778091E3008078802B8093E3008091C1
:103BE000E800877F8093E8000E9493038091E800BB
:103BF00080FFFCCF8091E30080688093E30082E047
:103C0000011183E08093A70345C18058823008F0FA
:103C100041C18091A1039091A2038C3D23E09207C2
:103C2000A1F583E08A838AE289834FB7F894DE01A5
:103C3000139620E03EE051E2E32FF0E0509357006E
:103C4000E49120FF03C0E295EF703F5FEF708E2F8D
:103C500090E0EA30C0F0C7968D939D932F5F24319A
:103C600059F74FBF8091E800877F8093E8006AE2B0
:103C700070E0CE0101960E9445048091E8008B77A8
:103C80008093E80007C1C096E7CF4091A30350910D
:103C9000A403292F33272330310509F440C078F5D8
:103CA0002130310509F472C08FE590E0ECEDF4E0CD
:103CB0002230310509F0EEC02091E800277F2093E3
:103CC000E8002091A5033091A6038217930708F41A
:103CD0009C0140E02115310509F05DC041115BC038
:103CE0008091E80082FDC9CF8091A703882329F243
:103CF000853019F28091E80083FFF2CFBECF2132E8
:103D0000310509F43BC02232310509F0C3C0452B0F
:103D100009F0C0C082E091E0EAEDF3E0CDCF992751
:103D200081309105D9F0009771F082309105F1F062
:103D3000039709F0AFC0EDE4F5E0E4918E2F90E039
:103D4000EDE4F5E007C0EBE8F5E0E4918E2F90E0BC
:103D5000EBE8F5E0009709F49DC0AECFE3E6F5E0AF
:103D6000E4918E2F90E0E3E6F5E0F4CFE3E5F5E0B3
:103D7000E4918E2F90E0E3E5F5E0ECCF452B09F0E0
:103D800089C089E090E0EEEEF4E096CF82E190E029
:103D9000EBE3F5E091CF8091A703882309F46DCF81
:103DA000853009F46ACF8091E80083FD66CF809169
:103DB000E80082FD95CF8091E80080FF8BCF909145
:103DC000F3008091F2002115310519F0883091053A
:103DD00050F041E0089709F040E08091E8008E77CC
:103DE0008093E80077CF44914093F10031962150C1
:103DF00031090196E8CF803809F04CC08091E80085
:103E0000877F8093E80080919E038093F100A5CE88
:103E1000811140C00091A1030230E0F58091E800DB
:103E2000877F8093E80000939E030E949303002302
:103E300011F084E005C08091E30087FDFACF81E0B6
:103E40008093A70342E261EC81E00E94B20342E06A
:103E500061EC82E00E94B20342E160E884E00E94EB
:103E6000B20342E161E883E00E94B20313C0809193
:103E7000A103813079F481E0933009F080E08093F0
:103E80009D031092E9008091E800877F8093E8000D
:103E90000E9493038091E80083FF0AC08091E800AC
:103EA000877F8093E8008091EB0080628093EB0035
:103EB0001F701093E900AA960FB6F894DEBF0FBEEC
:103EC000CDBFDF91CF911F910F910895EF92FF9297
:103ED0000F931F93CF937C018B010E943003C82F57
:103EE000811119C08091E80085FD0DC08091E80026
:103EF0008E778093E8000E94E11B0E9430038823A4
:103F000089F3C82F08C0F70181917F018093F100E8
:103F10000150110939F78C2FCF911F910F91FF900C
:103F2000EF9008950F931F93CF93DF9300D00F92DC
:103F3000CDB7DEB78C010E94A304823011F084302B
:103F400021F584E089831B830A8381E08093E90063
:103F50008FEF9091E800815095FD06C095ED9A9500
:103F6000F1F700008111F5CF8091E80085FF0DC0C9
:103F700050E040E063E070E0CE0101960E94661FD1
:103F80008091E8008E778093E8000F900F900F905B
:103F9000DF91CF911F910F910895CF93DF9300D0C0
:103FA0000F92CDB7DEB72091A703243031F523E07F
:103FB0002983805891099B838A8381E08093E9005B
:103FC0008FEF9091E800815095FD06C095ED9A9590
:103FD000F1F700008111F5CF8091E80085FF0DC059
:103FE00050E040E063E070E0CE0101960E94661F61
:103FF0008091E8008E778093E8000F900F900F90EB
:10400000DF91CF910895CF93DF93EC010E94A30439
:10401000823011F08430F9F481E08093E9008FEF71
:104020009091E800815095FD06C095ED9A95F1F7C5
:1040300000008111F5CF8091E80085FF0CC050E0B1
:1040400040E066E070E0CE010E94661F8091E800CB
:104050008E778093E800DF91CF910895CF93DF931F
:10406000EC010E94A304823011F08430A9F5809104
:104070000C01882321F080914C0360E287FF69E006
:1040800081E08093E9008FEF9091E800815095FDE9
:1040900006C095ED9A95F1F700008111F5CF80915A
:1040A000E80085FF19C080910C01811118C050E013
:1040B00040E068E070E0CE0101960E94661F8091AA
:1040C000E8008E778093E80080E2FE01ACE7B3E081
:1040D00001900D928A95E1F7DF91CF91089570E0FC
:1040E00050E040E0CE01E9CF0F931F93CF93DF93D1
:1040F0008091000190910101892B71F08091500114
:104100008F5F80935001811107C00E94021B90E0D5
:10411000909301018093000101E513E0C0E08C2F32
:104120000E94930DD7E0DC0F8D2F0E94930D8C2FF2
:104130000E94F80DF80181938F018D2F0E94F80DD8
:10414000F80186830E94E20DCF5FC73041F780916E
:104150007B02813089F480916402882369F0809128
:10416000610281110FC080915101909152010E9412
:10417000DF058F3E924000F581E0DF91CF911F91E6
:104180000F91089580915101909152010E94DF0595
:104190004A9790F380E00E9401190E94A3060E94B2
:1041A000CA1B0E940906909352018093510180918D
:1041B00061028111E1CFD7CF81E080936102DCCF32
:1041C00096E0EAE8F2E0DF01292F1D922A95E9F74F
:1041D000E0E9F2E0DF01292F1D922A95E9F7E3E8F3
:1041E000F2E0DF011D929A95E9F780934B03682F67
:1041F0008DE090E00C94ED2D8F929F92AF92BF9244
:10420000CF92DF92EF92FF920F931F93CF93DF93A2
:1042100000D000D00F92CDB7DEB77C01DC01139641
:104220008D919C911497892B41F01C9111960C91C2
:10423000812F80238F3F09F0EFC50F900F900F90D3
:104240000F900F90DF91CF911F910F91FF90EF9002
:10425000DF90CF90BF90AF909F908F9008950E9475
:10426000090BD82E682F89819A810E944E07E02F72
:10427000F0E0BEE0DB9EE00DF11D1124EE0FFF1F0C
:10428000EE0FFF1FE10FF11DEE0FFF1FE65BFD4F6D
:10429000059114910033EAE51E0709F44CC090F52E
:1042A000C8019A558A9708F474C0003FBCE51B0703
:1042B00009F45DC208F005C2083DFCE51F0709F4DA
:1042C00052C2093D2CE5120709F45DC2073D4CE5D9
:1042D000140709F005C226E241EE61EEC7010F9016
:1042E0000F900F900F900F90DF91CF911F910F9132
:1042F000FF90EF90DF90CF90BF90AF909F908F9006
:104300000C94241101332AE5120779F6B70181E3F1
:104310009AE50E949A0B882309F48FCFF701408118
:1043200051816281738184810E94A108882309F4EC
:1043300084CF81E01BC0B70180E39AE50E949A0B0D
:10434000882309F47ACFD7014C9111965C9111978B
:1043500012966C91129713967C91139714968C91E8
:104360000E94A108882309F468CF80E00F900F9085
:104370000F900F900F90DF91CF911F910F91FF90B1
:10438000EF90DF90CF90BF90AF909F908F900C9464
:10439000E020B701C8010E949A0B882309F44DCF91
:1043A00086E0EAE8F2E0A0E9B2E001900D928A9599
:1043B000E1F780914B03882309F469C0813009F447
:1043C0009EC010E000918902D7014C9111965C913A
:1043D000119712966C91129713967C9113971496DD
:1043E0008C910E94A108882309F4BBC00F5F009341
:1043F0008902112309F421CF86E0EAE8F2E0A3E87C
:10440000B2E001900D928A95E1F7809182028823B3
:1044100041F010928202809181020E94B2040E94B7
:104420008D0680917D0290917E02A0917F02B091D5
:1044300080028F309105A105B10509F098C08091E7
:104440007C0291E0892780937C0210927D02109279
:104450007E0210927F0210928002109264021092EB
:104460006302109262020E94CA1B10926102E1EE86
:10447000F1E081E692E04FEF5FEF60E070E04193A2
:104480005193619371938E179F07C9F7D6CED701C9
:104490004C9111965C91119712966C91129713960C
:1044A0007C91139714968C910E94A108F801FF2724
:1044B000E656FC4F9491A92FA295A695A695A370B8
:1044C000B0E0882339F0A657BD4F0C91E92FE02BBF
:1044D000EC9377CF9D012D573D4FF9010081892F36
:1044E000802311E009F010E0E92FE095A657BD4FB9
:1044F0008C918E238C93E023D901EC9363CFF70149
:10450000408151816281738184810E94A108E82FDA
:10451000802F67E00E94A52D492F90E026E030E033
:10452000B901641B710921E030E001C0220F6A95D6
:10453000EAF7DC01A657BD4F4C91EE2319F0242B6E
:104540002C933FCFFC01ED57FD4F8081982F922394
:1045500011E009F010E0209542234C93282320839A
:1045600031CF015007FF43CF1092890242CF8330F1
:104570009105A105E0E3BE0739F580917B02823009
:1045800041F010927A028093790282E080937B025C
:104590005CCF8091790280937B0235E6E32E32E096
:1045A000F32E10E000E080917A028017110609F0E6
:1045B0001CF40E94CA1B49CFD7018D917D010E9436
:1045C000D80E0F5F1F4FEFCF83339105A105B105C3
:1045D00021F481E00E940D0838CF20917B028130C8
:1045E0009105A105B10539F4211102C081E0CECFBA
:1045F00010927B022ACF213059F580FF33C01092F0
:104600006402109263021092620210927D02109274
:104610007E0210927F021092800280914B038823C9
:1046200069F1813009F009CE809190028068809311
:10463000900200E912E096E9E92E92E0F92ED80105
:104640008D918D010E949B0EE016F106C1F7F5CD0C
:10465000223041F083709927AA27BB27892B8A2B08
:104660008B2B21F080E00E940119EFCE2111C7CFE2
:1046700080917C02882319F281E0F5CF00E912E0F5
:1046800024E9E22E22E0F22EF80181918F018111BE
:104690000E949B0EE016F106B9F780E00F900F9094
:1046A0000F900F900F90DF91CF911F910F91FF907E
:1046B000EF90DF90CF90BF90AF909F908F900C9431
:1046C0009B0E023F6CE5160709F459C008F453C06D
:1046D00027E245EE66EE033F8CE5180709F4FECDB0
:1046E000D70112968C91882309F4A9C310929602DF
:1046F0000531BCE51B0708F049C00230ECE51E0798
:1047000008F0C6C00115FCE51F0709F485C001309B
:104710001C4509F4B0C0D7010D911C91882309F400
:104720003CC1C8010E94090BD82E682FC8010E9405
:104730004E07B8018D2D0E94E208082FD82EF701F0
:10474000358132953F70228121111092FA02192F82
:1047500012951F701C3008F05AC1E12FF0E0EB59A0
:10476000F14D0C94C52D27E245EE65EEB7CD26E25E
:1047700041EE60EEB3CD27E245EE64EEAFCD26E22A
:1047800041EE62EEABCD28E241E0EFCF0C3D4CE5CF
:10479000140709F476C020F506311C4509F0BBCF9B
:1047A0008091FB028A7A91E009F490E0909397025D
:1047B0008111EFC089E20E94F2060F900F900F90D6
:1047C0000F900F90DF91CF911F910F91FF90EF907D
:1047D000DF90CF90BF90AF909F908F900C94A306E6
:1047E0000D3D9CE5190709F44FC00E3D1C4509F02D
:1047F00092CF0F900F900F900F900F90DF91CF916D
:104800001F910F91FF90EF90DF90CF90BF90AF90EE
:104810009F908F900C94781B0E94CA1BBFEFE4E31B
:10482000FCE0B150E040F040E1F700C0000081E062
:104830008093E00080E28093D8001092C9008FE15D
:104840009EE40197F1F700C0000087E090EBDC01E7
:104850008093A8039093A903A093AA03B093AB03FA
:1048600088E19CE00FB6F894A895809360000FBE95
:1048700090936000FFCF809169038160809369030A
:10488000DCCC10927803D9CC82E080937803D5CC2D
:104890000E946D1B811102C00E94781B84E090E091
:1048A0000E94DF2D90E090934D0380934C03F8011C
:1048B000E350FC4580914C038160E231F10538F40E
:1048C000EF58F14D0C94C52D80914C03826080937C
:1048D0004C0360914C0384E090E00E94ED2D0F901A
:1048E0000F900F900F900F90DF91CF911F910F912C
:1048F000FF90EF90DF90CF90BF90AF909F908F9000
:104900000C94CA1B80914C038460E1CF80914C03CE
:104910008860DDCF80914C038061D9CF80914C03BA
:104920008062D5CF80914C038064D1CF80914C03BD
:104930008068CDCF80914C038C60C9CF80914C03AF
:104940008E7FC5CF80914C038D7FC1CF80914C036A
:104950008B7FBDCF80914C03877FB9CF80914C0373
:104960008F7EB5CF80914C038F7DB1CF80914C036A
:104970008F7BADCF80914C038F77A9CF80914C0373
:10498000837FA5CF90914C03892F97FB87F980589F
:104990009ECF85E310CF85E374C2C8010E9427072C
:1049A000D82EC7CEF92FFF70FF2E907F19F0F2940A
:1049B00080EFF8222223C9F0FF2069F080E2800F07
:1049C000883010F0D1100BC08091FB02F82AF092D1
:1049D000FB020E94A306802F0E94D80E18C080916F
:1049E000FA02F82AF092FA02F4CF802F0E944408CB
:1049F000FF2069F0F094005E083010F0D11023C061
:104A00008091FB02F822F092FB020E94A30618306C
:104A100039F008F412CC1A5F1F70123008F00DCC78
:104A20000F900F900F900F900F90DF91CF911F91EB
:104A30000F91FF90EF90DF90CF90BF90AF909F903D
:104A40008F900C9438088091FA02F822F092FA02C2
:104A5000DCCF892F8F70907F903211F08295807F0C
:104A600041E0D4120CC0222329F0333080F60E949A
:104A70008F07CDCF323058F60E948407C8CF22234B
:104A800019F03323A1F3A7CF3323B1F3802F0E9472
:104A90004408BDCF892F86958695837061F081305B
:104AA00009F0B5CF802F9370211102C090E080E013
:104AB0000E949907ACCF802F9370211102C090E023
:104AC00080E00E94AF07A3CF222309F1053F99F0B0
:104AD000063FB9F0043F49F4809198029091990201
:104AE00081609093990280939802802F0E947705AD
:104AF0000E948D068CCF80919802909199028260DD
:104B0000F0CF80919802909199028460EACF053F9E
:104B100089F0063FA9F0043F49F4809198029091F2
:104B200099028E7F9093990280939802802F0E9421
:104B3000B204DECF80919802909199028D7FF2CFDE
:104B400080919802909199028B7FECCF892F83708E
:104B500009F06EC021115BCF802F829586958770FA
:104B6000880F880F602F6F70C62ED12CF12CE12C8E
:104B7000082E04C0CC0CDD1CEE1CFF1C0A94D2F7DE
:104B800040E050E0BA0104FF0FC04FE050E060E0A9
:104B900070E004C0440F551F661F771F8A95D2F737
:104BA00040955095609570959695969593708090E8
:104BB000FC029090FD02A090FE02B090FF029230A5
:104BC000D9F028F5913069F04C295D296E297F29AB
:104BD000CB01BA01682179218A219B210E942E08EC
:104BE00016CFC828D928EA28FB28CB01BA016C299E
:104BF0007D298E299F29F2CF4C295D296E297F2995
:104C0000CB01BA01682579258A259B25E7CFCB0101
:104C1000BA01682179218A219B210E942E08609186
:104C2000FC027091FD028091FE029091FF02DFCFA5
:104C30008695222311F0892F8170882309F4E7CE0D
:104C4000802F829586958770880F880F602F6F70F0
:104C5000C62ED12CF12CE12C082E04C0CC0CDD1C6E
:104C6000EE1CFF1C0A94D2F740E050E0BA0104FFAA
:104C70000FC04FE050E060E070E004C0440F551FEB
:104C8000661F771F8A95D2F740955095609570956D
:104C90009695969593708090F5029090F602A0906C
:104CA000F702B090F8029230D9F028F5913069F00F
:104CB0004C295D296E297F29CB01BA016821792110
:104CC0008A219B210E94E007A2CEC828D928EA2881
:104CD000FB28CB01BA016C297D298E299F29F2CFAF
:104CE0004C295D296E297F29CB01BA0168257925D8
:104CF0008A259B25E7CFCB01BA01682179218A213A
:104D00009B210E94E0076091F5027091F60280916C
:104D1000F7029091F802DFCF802F60EFD616A9F14D
:104D20006D1558F070EED71618F5222309F462C0FD
:104D3000311151CE892F8F714FC0A2EFDA1609F4CD
:104D40004EC0DA1608F444C0B3EFDB12EECF2223D4
:104D500009F44CC0292F2F7161E070E080E090E0F1
:104D600004C0660F771F881F991F2A95D2F7AACF14
:104D70000F70892F8F71222321F00E940D08802F40
:104D800076CE0E94EA07802F77CE2223E9F03230D8
:104D900008F03DCE292F2F7161E070E080E090E0B7
:104DA00004C0660F771F881F991F2A95D2F7C090FD
:104DB000F502D090F602E090F702F090F8026C2530
:104DC0007D258E259F257ECF333008F020CEE2CF83
:104DD000892F8F71222339F00E940D0818CE892F58
:104DE0008F712223C9F30E94EA0711CE60E070E0C0
:104DF000CB0168CF332369F0893309F047CEEFEF59
:104E0000F3EC29E0E150F0402040E1F700C0000061
:104E10003DCE892F8F71E7CF85E0F701DE01119636
:104E200001900D928A95E1F7D70112962C91898114
:104E30009A81211114CA0E942707D82E18CA053159
:104E4000BCE51B0778F40230ECE51E0708F063CCE4
:104E50000115FCE51F0709F4F0C901301C4509F4F0
:104E6000ECC959CC0C3D4CE5140709F4E6C960F4D3
:104E700006311C4509F04FCC8091970281118BCDF2
:104E800089E20E94C70699CC0D3D9CE5190709F4FB
:104E9000D4C90E3D1C4509F4D0C93DCC1F93CF9316
:104EA000DF9380919F02807FC1F480919C028823D0
:104EB000A1F08091D102C091A00260919A027091FC
:104EC0009B0240919D0250919E02D62FD723DA017A
:104ED000A095B09516E0C81304C0DF91CF911F9143
:104EE000089590E04115510511F0DF3F31F401962E
:104EF0008770F1CF2A0F3B1F17C0189FF001199F31
:104F0000F00D1124EF55FD4F21812713F0CF2081A3
:104F10002613EDCF22812111EACF2381348124177A
:104F2000350740F3241B350B283C310500F7209151
:104F30009F022F70206120939F0226E0289FF0019E
:104F4000299FF00D1124EA55FD4F80818F708061FB
:104F500080838AE992E00E94FC20DF91CF911F912B
:104F60000C947A07BF92CF92DF92EF92FF920F9349
:104F70001F93CF93DF93CDB7DEB761970FB6F89449
:104F8000DEBF0FBECDBF8C0185E0F801DE011D96AE
:104F900001900D928A95E1F7D8012C9111963C91E0
:104FA00011971296EC90129780919D0290919E021B
:104FB000009709F463C140919A0250919B02642FBB
:104FC00065236F3F09F45AC11396CD90DC90B090E1
:104FD0009C02BB2009F413C1C816D906C0F1F60122
:104FE000E81BF90BCF01FF24F394883C910508F0EE
:104FF000F12C80919F02982F907FFF2009F4C1C06F
:1050000091117DC0FE2C531327C0421325C0E1101F
:1050100023C08F70806180939F028AE992E00E9492
:10502000FC2080919F02D80115968C938F2D61965C
:105030000FB6F894DEBF0FBECDBFDF91CF911F91A9
:105040000F91FF90EF90DF90CF90BF9008958095E3
:1050500090958C0D9D1DC7CFCD2829F0822F8323DD
:105060008F3F09F029C180E0B82FB170DB2E80FF9F
:105070003CC08091D1024091A00256E0841315C03B
:105080002D873E878D859E850E944B0B292F22956B
:105090002F702230F0F0243018F59F70F1F0F801F5
:1050A0009581907FD1F4D12C1EC090E0589FF001E3
:1050B000599FF00D1124EF55FD4F6181361306C045
:1050C0006081261303C06281E6120FC001968770CB
:1050D000D5CF9F7011F0882331F3805E883018F3AC
:1050E000C8010E94FC20FD2CA1CFEE2009F49ECF28
:1050F00080919F02816080939F02F12C97CF531380
:1051000013C0421311C0E1100FC0D80115968C9343
:10511000C8010E94FC2086E0F801AAE9B2E00190F3
:105120000D928A95E1F782CF2D873E878D859E85EA
:105130000E94550B882309F1EE20F9F080919F021F
:10514000803270F020919A0230919B0238872F8331
:105150001986DB86CA868C87CE0107960E94FC20C2
:1051600086E0F801AAE9B2E001900D928A95E1F794
:105170000E944E27FF24F39459CFC8010E94FC20BF
:10518000F9CF91110CC08AE992E00E94FC2086E0E0
:10519000EAE9F2E0DF011D928A95E9F747CF531360
:1051A00012C0421310C0E1100EC0F8018583C8017F
:1051B0000E94FC20EAE9F2E086E0DF011D928A9578
:1051C000E9F7FB2C33CF2D873E878D859E850E9486
:1051D000550B882391F2EE2081F280919F0280325C
:1051E00008F4BECF20919A0230919B023A83298322
:1051F0001B82DD82CC828E83CE010196AFCFC81692
:10520000D90640F0C81AD90AB8ECCB16D10448F038
:10521000F12CBDCF809590958C0D9D1D883C9105FE
:10522000B8F7FE2CEE2009F4A8CF531316C0421392
:1052300014C080919F0280FD6ECF982F907F09F45B
:105240006ACFF8018583903F09F462CF982F907F51
:10525000905F8F70892B85835BCF2D873E878D85EF
:105260009E850E94550B81117BCF80919F028160AA
:1052700080939F02C8010E94FC20D8CEEE2009F442
:105280007CCF2D873E878D859E850E94550BF82EFD
:10529000882309F472CF86E0F801AAE9B2E0019010
:1052A0000D928A95E1F780919A0290919B020E945B
:1052B0004B0B0E944E27BACE81E08E25D5CE1F9390
:1052C000CF93DF93CDB7DEB767970FB6F894DEBF05
:1052D0000FBECDBF4B8B5C8B6D8B7E8B8F8B1A8AF9
:1052E000198A85E0FE017396DE011D9601900D92EC
:1052F0008A95E1F786E0FE013D96DE011796019062
:105300000D928A95E1F7CE0107960E94B22781118E
:1053100012C086E0FE013796DE01119601900D92D3
:105320008A95E1F78A859B85892B29F08F8198855D
:1053300089238F3FB1F516E08091D1029091A002B0
:1053400089131DC067960FB6F894DEBF0FBECDBFA0
:10535000DF91CF911F91089596E0929FD001939F86
:10536000B00D1124AF55BD4FFE01319601900D9245
:105370009A95E1F78093A0020E947A07DCCF819F83
:10538000C00111248F559D4F0E94B2278823D1F26E
:105390008091D10290E00196877099278093D10285
:1053A000CBCF2091A00230E0C901019687709927E8
:1053B0004091D1024817190679F60E94CA1B109233
:1053C000A0021092D10286E0EAE9F2E0DF011D922C
:1053D0008A95E9F7B0CF1F920F920FB60F92112462
:1053E0002F933F934F935F936F937F938F939F93ED
:1053F000AF93BF93EF93FF938091E10082FF09C0C9
:105400008091E20082FF05C08091E1008B7F809354
:10541000E1008091DA0080FF24C08091D80080FFF5
:1054200020C08091DA008E7F8093DA008091D900CD
:1054300080FF9AC080E189BD82E189BD09B400FE88
:10544000FDCF81E08093A70380917903811109C08A
:105450000E9411030E94E4038091E2008460809323
:10546000E2008091E10080FF17C08091E20080FFA0
:1054700013C08091E2008E7F8093E2008091E20071
:1054800080618093E2008091D80080628093D80090
:1054900019BC85E08093A7038091E10084FF2DC0B3
:1054A0008091E20084FF29C080E189BD82E189BD4D
:1054B00089B5982F917080FFFBCF8091D8008F7DA8
:1054C0008093D8008091E1008F7E8093E1008091ED
:1054D000E2008F7E8093E2008091E2008160809301
:1054E000E20080919E03882309F444C084E0809305
:1054F000A7030E94CA1B0E9438088091E10083FF25
:1055000022C08091E20083FF1EC08091E100877F6E
:105510008093E10082E08093A70310929E03809124
:10552000E1008E7F8093E1008091E2008E7F809386
:10553000E2008091E20080618093E20042E060E05E
:1055400080E00E94B203FF91EF91BF91AF919F91D4
:105550008F917F916F915F914F913F912F910F901C
:105560000FBE0F901F90189519BC1092A7031092B0
:10557000790377CF8091E30087FD93E09093A703B1
:10558000B8CFCDB7DEB72D970FB6F894DEBF0FBEFC
:10559000CDBF84B7877F84BF0FB6F894A89580915C
:1055A0006000886180936000109260000FBE80E808
:1055B000809361001092610085B7806885BF85B7D0
:1055C000806885BF0E9411030E94E4038091E2007D
:1055D00084608093E20078940E94E11B82E084BDA5
:1055E00093E095BD9AEF97BD80936E000E94021BD9
:1055F00090E090930101809300010E94E20D0E94CF
:10560000F10D8DE393E0E5E0F3E041E553E0DA01ED
:105610001D92AD01DC011D92CD011082118212821A
:1056200013823496B3E04F355B0789F70E946D1BF8
:10563000811102C00E94781B81E00E94E0203F9807
:105640008AB18F708AB96E98479A8BB1806F8BB987
:10565000769A0E946D1B811102C00E94781B82E025
:1056600090E00E94DF2D8093690384E090E00E9427
:10567000DF2D90E090934D0380934C0383E090E006
:105680000E94DF2D682F70E090E080E00E942E08DD
:105690000E946D1B811102C00E94781B8DE090E07A
:1056A0000E94DF2D80934B0380914C038068809390
:1056B0004C0382E091E090934F0380934E0382E08D
:1056C00090E09093200180931F018091A703843084
:1056D00079F58091210190912201A0912301B0914F
:1056E0002401892B8A2B8B2B19F1809118018F7043
:1056F0008093E90088E0E8E2F1E0DE011196019094
:105700000D928A95E1F750E040E068E070E0CE014C
:1057100001960E94661F50E040E062E070E08FE179
:1057200091E00E94661F8091E8008E778093E800E8
:10573000BB24B394AA24AA94EE24E394F12C90E120
:10574000592E22E1622E38E1C32ED12C40E4742E72
:105750008091A703853009F490C00E947420AAE6C6
:10576000B3E0E1E5F3E010E000E0702F61912D91EE
:10577000261709F4CFC090E080E0262730E0982E6D
:10578000A901082E02C0559547950A94E2F740FFFB
:10579000BCC089837A83C70102C0880F991F9A947D
:1057A000E2F74C01862F90E08821992121E0892B96
:1057B00009F420E02B830E9409068160782F9D83E5
:1057C0008C8349815A816B818D810E945F29F80108
:1057D000E659FC4F808188268082809166039091F3
:1057E00067030E94DF059C0190916503992319F0DE
:1057F0002431310578F0209161039090620300918B
:1058000063031091640321119BC0802F8929812B90
:1058100009F04CC10E94380890916803891721F063
:105820000E943808809368038091A703843009F0B0
:1058300009C18091210190912201A0912301B09191
:105840002401892B8A2B8B2B09F4FCC08091130136
:105850008F708093E9009091E80092FFF3C09091DF
:10586000F3002091F200392F232B09F0CBC0809157
:10587000E8008B778093E800E5C08091A70384302F
:1058800009F1109250030FB6F894A895C0926000E9
:105890000FBE7092600083B7817F846083BF83B73F
:1058A000816083BF7894889583B78E7F83BF0FB65E
:1058B000F894A895809160008861809360001092B0
:1058C00060000FBE80919D03882309F441CF0E94A0
:1058D000021B90E090930101809300010E94E20D71
:1058E0000E94F10DE1E5F3E0119223E0EF35F207BC
:1058F000D9F70E947420E1E5F3E081918111C2C0E3
:1059000043E0EF35F407C9F723CF019684309105C2
:1059100009F035CF0F5F1F4F0E30110509F025CF6D
:10592000A986AA861B860E9409068160782F9D871A
:105930008C8749855A856B858D850E945F294DCF5F
:105940009F3F19F09F5F90936503121624F40E9405
:105950005305809361038091610387FF05C00E9416
:105960005305819580936103191424F40E94530513
:10597000809362038091620387FF05C00E945305F4
:10598000819580936203309161033323A1F02091CC
:105990006203222381F045EB3403C00111249923D3
:1059A00059F19093610345EB2403900111243323B3
:1059B00031F130936203101624F40E943105809374
:1059C00063038091630387FF05C00E9431058195C1
:1059D00080936303111624F40E94310580936403BD
:1059E0008091640387FF05C00E94310581958093F3
:1059F00064030E948D060ECFB0926103D4CFB092A3
:105A00006203D9CF9091F3002091F200392F232B1C
:105A1000C9F09091A7039430A9F48093E900809194
:105A2000E80082FF0FC09091F3008091F200892B73
:105A300011F08091F1009091F3008091F200892B98
:105A400009F415CF8091A7038430C9F48091210116
:105A500090912201A0912301B0912401892B8A2BDE
:105A60008B2B69F080910E018F708093E9008091FB
:105A7000E80080FF04C08DE091E00E9461030E9475
:105A8000E11B66CE59BC69BC09B400FEFDCF809114
:105A9000D8008F7D8093D8008091E0008260809351
:105AA000E0008091E00081FDFCCF52CE9F3F09F0E5
:105AB00049CF5ACF78941F921FB61F9211248F930B
:105AC0009F93AF93BF938091000390910103A091A6
:105AD0000203B09103030196A11DB11D8093000341
